:100000000C9446000C9465000C9465000C946500FB
:100010000C9465000C9465000C9465000C946500CC
:100020000C9465000C9465000C9465000C946500BC
:100030000C9465000C9465000C9465000C946500AC
:100040000C9465000C9465000C9465000C9465009C
:100050000C9465000C9465000C9465000C9465008C
:100060000C9465000C9465000C9465000C9465007C
:100070000C9465000C9465000C9465000C9465006C
:100080000C9465000C9465000C94650011241FBE4F
:10009000CFEFD0E4DEBFCDBF11E0A0E0B1E0EEE9EC
:1000A000F2E000E00BBF02C007900D92A631B1074D
:1000B000D9F711E0A6E1B1E001C01D92A931B10765
:1000C000E1F70E942C010C944D010C940000CF9399
:1000D000DF9300D01F92CDB7DEB789837B836A831D
:1000E00089818A3031F48A819B81BC018DE00E9434
:1000F000670080EC90E0FC018081882F90E08072A6
:1001000099270097B1F386EC90E02981FC012083C8
:1001100080E090E00F900F900F90DF91CF910895C5
:10012000CF93DF93CDB7DEB7809116019091170181
:1001300081309105E9F08130910528F082309105F8
:1001400009F451C073C01092180185E290E020912B
:100150001801222F30E0225F3E4FF9012081FC017F
:10016000208381E090E0909317018093160163C093
:1001700080E290E0FC018081882F90E081709927D7
:100180000097F9F480911801863030F480911801BD
:100190008F5F8093180102C01092180185E290E0F1
:1001A00020911801222F30E0225F3E4FF90120817B
:1001B000FC01208382E090E0909317018093160168
:1001C00011C080E290E0FC018081882F90E0817076
:1001D0009927009739F081E090E090931701809380
:1001E000160129C028C080E290E0FC018081882FA0
:1001F00090E081709927009739F081E090E090932A
:1002000017018093160111C080E290E0FC0180810B
:10021000882F90E081709927009739F482E090E070
:10022000909317018093160106C005C01092170124
:1002300010921601000080911601909117018130F3
:10024000910521F08230910519F003C0000001C032
:100250000000DF91CF910895CF93DF93CDB7DEB744
:1002600081E290E0FC01108282E290E02FEFFC013D
:10027000208384E290E02FEFFC01208385E290E070
:10028000FC01108285E290E0FC01108210921701BF
:0E029000109216010E949000FDCFF894FFCF4F
:10029E0000000002000000006700000000000001E6
:0602AE0005152A282000BE
:00000001FF
