:100000000C9446000C9465000C9465000C946500FB
:100010000C9465000C9465000C9465000C946500CC
:100020000C9465000C9465000C9465000C946500BC
:100030000C9465000C9465000C9465000C946500AC
:100040000C9465000C9465000C9465000C9465009C
:100050000C9465000C9465000C9465000C9465008C
:100060000C9465000C9465000C9465000C9465007C
:100070000C9465000C9465000C9465000C9465006C
:100080000C9465000C9465000C94650011241FBE4F
:10009000CFEFD0E4DEBFCDBF11E0A0E0B1E0ECE4F3
:1000A000F2E000E00BBF02C007900D92A830B1074C
:1000B000D9F721E0A8E0B1E001C01D92AB30B20752
:1000C000E1F70E9403010C9424010C940000CF93EB
:1000D000DF93CDB7DEB7809108019091090181309F
:1000E0009105E1F08130910520F0029709F450C0AC
:1000F00071C010920A0185E290E020910A01222F3E
:1001000030E020503F4FF9012081FC01208381E045
:1001100090E0909309018093080164C080E290E030
:10012000FC018081882F90E081709927892BF9F458
:1001300080910A01863030F480910A018F5F8093AC
:100140000A0102C010920A0185E290E020910A01A2
:10015000222F30E020503F4FF9012081FC01208305
:1001600082E090E0909309018093080138C080E21A
:1001700090E0FC018081882F90E081709927892B85
:1001800071F181E090E0909309018093080127C00C
:1001900080E290E0FC018081882F90E081709927B7
:1001A000892B39F081E090E0909309018093080158
:1001B00018C080E290E0FC018081882F90E081707F
:1001C0009927892B71F482E090E090930901809344
:1001D000080107C0109209011092080103C0000035
:1001E00001C00000809108019091090181309105C2
:1001F00019F0029719F003C0000001C000000000D0
:10020000DF91CF910895CF93DF93CDB7DEB781E231
:1002100090E0FC01108282E290E02FEFFC0120834D
:1002200084E290E02FEFFC01208385E290E0FC0166
:10023000108285E290E0FC01108210920901109278
:0C02400008010E946700FDCFF894FFCF7A
:08024C00000105152A2820001D
:00000001FF
